{
  "_format": "hh-sol-artifact-1",
  "contractName": "LogStorage",
  "sourceName": "contracts/LogStorage.sol",
  "abi": [
    {
      "anonymous": false,
      "inputs": [
        {
          "indexed": false,
          "internalType": "uint256",
          "name": "timestamp",
          "type": "uint256"
        },
        {
          "indexed": false,
          "internalType": "string",
          "name": "source",
          "type": "string"
        },
        {
          "indexed": false,
          "internalType": "string",
          "name": "message",
          "type": "string"
        },
        {
          "indexed": false,
          "internalType": "string",
          "name": "status",
          "type": "string"
        }
      ],
      "name": "LogAdded",
      "type": "event"
    },
    {
      "inputs": [
        {
          "internalType": "string",
          "name": "_source",
          "type": "string"
        },
        {
          "internalType": "string",
          "name": "_message",
          "type": "string"
        },
        {
          "internalType": "string",
          "name": "_status",
          "type": "string"
        }
      ],
      "name": "addLog",
      "outputs": [],
      "stateMutability": "nonpayable",
      "type": "function"
    },
    {
      "inputs": [],
      "name": "getLogCount",
      "outputs": [
        {
          "internalType": "uint256",
          "name": "",
          "type": "uint256"
        }
      ],
      "stateMutability": "view",
      "type": "function"
    },
    {
      "inputs": [],
      "name": "getLogs",
      "outputs": [
        {
          "components": [
            {
              "internalType": "uint256",
              "name": "timestamp",
              "type": "uint256"
            },
            {
              "internalType": "string",
              "name": "source",
              "type": "string"
            },
            {
              "internalType": "string",
              "name": "message",
              "type": "string"
            },
            {
              "internalType": "string",
              "name": "status",
              "type": "string"
            }
          ],
          "internalType": "struct LogStorage.LogEntry[]",
          "name": "",
          "type": "tuple[]"
        }
      ],
      "stateMutability": "view",
      "type": "function"
    },
    {
      "inputs": [
        {
          "internalType": "uint256",
          "name": "",
          "type": "uint256"
        }
      ],
      "name": "logs",
      "outputs": [
        {
          "internalType": "uint256",
          "name": "timestamp",
          "type": "uint256"
        },
        {
          "internalType": "string",
          "name": "source",
          "type": "string"
        },
        {
          "internalType": "string",
          "name": "message",
          "type": "string"
        },
        {
          "internalType": "string",
          "name": "status",
          "type": "string"
        }
      ],
      "stateMutability": "view",
      "type": "function"
    }
  ],
  "bytecode": "0x608060405234801561001057600080fd5b50610de4806100206000396000f3fe608060405234801561001057600080fd5b506004361061004c5760003560e01c80631b3f14e514610051578063618033db1461006d578063e79899bd1461008b578063fe290ccb146100be575b600080fd5b61006b60048036038101906100669190610715565b6100dc565b005b6100756101b8565b60405161008291906107d5565b60405180910390f35b6100a560048036038101906100a0919061081c565b6101c4565b6040516100b594939291906108c8565b60405180910390f35b6100c661039c565b6040516100d39190610aae565b60405180910390f35b600060405180608001604052804281526020018581526020018481526020018381525090806001815401808255809150506001900390600052602060002090600402016000909190919091506000820151816000015560208201518160010190816101479190610cdc565b50604082015181600201908161015d9190610cdc565b5060608201518160030190816101739190610cdc565b5050507ffa9e0c559ca6eb3439156bd1f7cfda0f08cb404f409cf7e2713b2b00bd43b574428484846040516101ab94939291906108c8565b60405180910390a1505050565b60008080549050905090565b600081815481106101d457600080fd5b90600052602060002090600402016000915090508060000154908060010180546101fd90610aff565b80601f016020809104026020016040519081016040528092919081815260200182805461022990610aff565b80156102765780601f1061024b57610100808354040283529160200191610276565b820191906000526020600020905b81548152906001019060200180831161025957829003601f168201915b50505050509080600201805461028b90610aff565b80601f01602080910402602001604051908101604052809291908181526020018280546102b790610aff565b80156103045780601f106102d957610100808354040283529160200191610304565b820191906000526020600020905b8154815290600101906020018083116102e757829003601f168201915b50505050509080600301805461031990610aff565b80601f016020809104026020016040519081016040528092919081815260200182805461034590610aff565b80156103925780601f1061036757610100808354040283529160200191610392565b820191906000526020600020905b81548152906001019060200180831161037557829003601f168201915b5050505050905084565b60606000805480602002602001604051908101604052809291908181526020016000905b828210156105b25783829060005260206000209060040201604051806080016040529081600082015481526020016001820180546103fd90610aff565b80601f016020809104026020016040519081016040528092919081815260200182805461042990610aff565b80156104765780601f1061044b57610100808354040283529160200191610476565b820191906000526020600020905b81548152906001019060200180831161045957829003601f168201915b5050505050815260200160028201805461048f90610aff565b80601f01602080910402602001604051908101604052809291908181526020018280546104bb90610aff565b80156105085780601f106104dd57610100808354040283529160200191610508565b820191906000526020600020905b8154815290600101906020018083116104eb57829003601f168201915b5050505050815260200160038201805461052190610aff565b80601f016020809104026020016040519081016040528092919081815260200182805461054d90610aff565b801561059a5780601f1061056f5761010080835404028352916020019161059a565b820191906000526020600020905b81548152906001019060200180831161057d57829003601f168201915b505050505081525050815260200190600101906103c0565b50505050905090565b6000604051905090565b600080fd5b600080fd5b600080fd5b600080fd5b6000601f19601f8301169050919050565b7f4e487b7100000000000000000000000000000000000000000000000000000000600052604160045260246000fd5b610622826105d9565b810181811067ffffffffffffffff82111715610641576106406105ea565b5b80604052505050565b60006106546105bb565b90506106608282610619565b919050565b600067ffffffffffffffff8211156106805761067f6105ea565b5b610689826105d9565b9050602081019050919050565b82818337600083830152505050565b60006106b86106b384610665565b61064a565b9050828152602081018484840111156106d4576106d36105d4565b5b6106df848285610696565b509392505050565b600082601f8301126106fc576106fb6105cf565b5b813561070c8482602086016106a5565b91505092915050565b60008060006060848603121561072e5761072d6105c5565b5b600084013567ffffffffffffffff81111561074c5761074b6105ca565b5b610758868287016106e7565b935050602084013567ffffffffffffffff811115610779576107786105ca565b5b610785868287016106e7565b925050604084013567ffffffffffffffff8111156107a6576107a56105ca565b5b6107b2868287016106e7565b9150509250925092565b6000819050919050565b6107cf816107bc565b82525050565b60006020820190506107ea60008301846107c6565b92915050565b6107f9816107bc565b811461080457600080fd5b50565b600081359050610816816107f0565b92915050565b600060208284031215610832576108316105c5565b5b600061084084828501610807565b91505092915050565b600081519050919050565b600082825260208201905092915050565b60005b83811015610883578082015181840152602081019050610868565b60008484015250505050565b600061089a82610849565b6108a48185610854565b93506108b4818560208601610865565b6108bd816105d9565b840191505092915050565b60006080820190506108dd60008301876107c6565b81810360208301526108ef818661088f565b90508181036040830152610903818561088f565b90508181036060830152610917818461088f565b905095945050505050565b600081519050919050565b600082825260208201905092915050565b6000819050602082019050919050565b610957816107bc565b82525050565b600082825260208201905092915050565b600061097982610849565b610983818561095d565b9350610993818560208601610865565b61099c816105d9565b840191505092915050565b60006080830160008301516109bf600086018261094e565b50602083015184820360208601526109d7828261096e565b915050604083015184820360408601526109f1828261096e565b91505060608301518482036060860152610a0b828261096e565b9150508091505092915050565b6000610a2483836109a7565b905092915050565b6000602082019050919050565b6000610a4482610922565b610a4e818561092d565b935083602082028501610a608561093e565b8060005b85811015610a9c5784840389528151610a7d8582610a18565b9450610a8883610a2c565b925060208a01995050600181019050610a64565b50829750879550505050505092915050565b60006020820190508181036000830152610ac88184610a39565b905092915050565b7f4e487b7100000000000000000000000000000000000000000000000000000000600052602260045260246000fd5b60006002820490506001821680610b1757607f821691505b602082108103610b2a57610b29610ad0565b5b50919050565b60008190508160005260206000209050919050565b60006020601f8301049050919050565b600082821b905092915050565b600060088302610b927fffffffffffffffffffffffffffffffffffffffffffffffffffffffffffffffff82610b55565b610b9c8683610b55565b95508019841693508086168417925050509392505050565b6000819050919050565b6000610bd9610bd4610bcf846107bc565b610bb4565b6107bc565b9050919050565b6000819050919050565b610bf383610bbe565b610c07610bff82610be0565b848454610b62565b825550505050565b600090565b610c1c610c0f565b610c27818484610bea565b505050565b5b81811015610c4b57610c40600082610c14565b600181019050610c2d565b5050565b601f821115610c9057610c6181610b30565b610c6a84610b45565b81016020851015610c79578190505b610c8d610c8585610b45565b830182610c2c565b50505b505050565b600082821c905092915050565b6000610cb360001984600802610c95565b1980831691505092915050565b6000610ccc8383610ca2565b9150826002028217905092915050565b610ce582610849565b67ffffffffffffffff811115610cfe57610cfd6105ea565b5b610d088254610aff565b610d13828285610c4f565b600060209050601f831160018114610d465760008415610d34578287015190505b610d3e8582610cc0565b865550610da6565b601f198416610d5486610b30565b60005b82811015610d7c57848901518255600182019150602085019450602081019050610d57565b86831015610d995784890151610d95601f891682610ca2565b8355505b6001600288020188555050505b50505050505056fea264697066735822122035bc367bb153a78b704c6d340ee68435e8e63f41d4988c4e43acdd30880b296d64736f6c63430008180033",
  "linkReferences": {},
  "deployedLinkReferences": {}
}